:100000000C942A000C9434000C9434000C943400AA
:100010000C9434000C9434000C9434000C94340090
:100020000C9434000C9434000C9434000C94340080
:100030000C9434000C9434000C9434000C94340070
:100040000C9434000C9434000C9434000C94340060
:100050000C94340011241FBECFE5D8E0DEBFCDBF25
:100060000E946F030C9476030C940000DF93CF93EF
:10007000CDB7DEB7EAE3F0E08FEF8083EBE3F0E0AB
:100080001082E7E3F0E08FEF8083E8E3F0E0108296
:10009000E4E3F0E08FEF8083E5E3F0E01082E1E35A
:1000A000F0E08FEF8083E2E3F0E01082CF91DF9108
:1000B0000895DF93CF93CDB7DEB72D970FB6F894A1
:1000C000DEBF0FBECDBF89836A834B838981282F12
:1000D00030E03D872C878C859D858130910509F422
:1000E0004CC02C853D85223031052CF48C859D85B6
:1000F000009771F0E2C02C853D852230310509F46E
:1001000071C08C859D858330910509F4A0C0D5C050
:100110008B81282F30E03B872A878A859B85009733
:10012000C9F02A853B852130310539F5AAE3B0E0D5
:10013000EAE3F0E08081482F8A81282F30E081E0D7
:1001400090E0022E02C0880F991F0A94E2F7842BD8
:100150008C9313C0AAE3B0E0EAE3F0E08081482F7B
:100160008A81282F30E081E090E002C0880F991F3B
:100170002A95E2F7809584238C938B81282F30E099
:1001800039872887888599850097C9F0288539851A
:100190002130310539F5A7E3B0E0E7E3F0E08081F5
:1001A000482F8A81282F30E081E090E0022E02C0A3
:1001B000880F991F0A94E2F7842B8C9313C0A7E34E
:1001C000B0E0E7E3F0E08081482F8A81282F30E01B
:1001D00081E090E002C0880F991F2A95E2F7809590
:1001E00084238C938B81282F30E03F832E838E8154
:1001F0009F810097C9F02E813F812130310539F56B
:10020000A4E3B0E0E4E3F0E08081482F8A81282F66
:1002100030E081E090E0022E02C0880F991F0A941E
:10022000E2F7842B8C9313C0A4E3B0E0E4E3F0E0A6
:100230008081482F8A81282F30E081E090E002C041
:10024000880F991F2A95E2F7809584238C938B81E0
:10025000282F30E03D832C838C819D810097C9F04D
:100260002C813D812130310541F5A1E3B0E0E1E38E
:10027000F0E08081482F8A81282F30E081E090E0F3
:10028000022E02C0880F991F0A94E2F7842B8C93E8
:1002900014C0A1E3B0E0E1E3F0E08081482F8A815F
:1002A000282F30E081E090E0022E02C0880F991FD5
:1002B0000A94E2F7809584238C932D960FB6F894D8
:1002C000DEBF0FBECDBFCF91DF910895DF93CF93F7
:1002D000CDB7DEB72D970FB6F894DEBF0FBECDBFFA
:1002E00089836A834B838981282F30E03D872C875F
:1002F0008C859D858130910509F44CC02C853D8508
:10030000223031052CF48C859D85009771F0E2C078
:100310002C853D852230310509F471C08C859D8581
:100320008330910509F4A0C0D5C08B81282F30E01F
:100330003B872A878A859B850097C9F02A853B855C
:100340002130310539F5ABE3B0E0EBE3F0E080813B
:10035000482F8A81282F30E081E090E0022E02C0F1
:10036000880F991F0A94E2F7842B8C9313C0ABE398
:10037000B0E0EBE3F0E08081482F8A81282F30E065
:1003800081E090E002C0880F991F2A95E2F78095DE
:1003900084238C938B81282F30E0398728878885A8
:1003A00099850097C9F0288539852130310539F5BF
:1003B000A8E3B0E0E8E3F0E08081482F8A81282FAD
:1003C00030E081E090E0022E02C0880F991F0A946D
:1003D000E2F7842B8C9313C0A8E3B0E0E8E3F0E0ED
:1003E0008081482F8A81282F30E081E090E002C090
:1003F000880F991F2A95E2F7809584238C938B812F
:10040000282F30E03F832E838E819F810097C9F093
:100410002E813F812130310539F5A5E3B0E0E5E3D8
:10042000F0E08081482F8A81282F30E081E090E041
:10043000022E02C0880F991F0A94E2F7842B8C9336
:1004400013C0A5E3B0E0E5E3F0E08081482F8A81A6
:10045000282F30E081E090E002C0880F991F2A9594
:10046000E2F7809584238C938B81282F30E03D83A5
:100470002C838C819D810097C9F02C813D81213096
:10048000310541F5A2E3B0E0E2E3F0E08081482FDE
:100490008A81282F30E081E090E0022E02C0880F90
:1004A000991F0A94E2F7842B8C9314C0A2E3B0E066
:1004B000E2E3F0E08081482F8A81282F30E081E05C
:1004C00090E0022E02C0880F991F0A94E2F78095EF
:1004D00084238C932D960FB6F894DEBF0FBECDBF4C
:1004E000CF91DF910895DF93CF9300D000D00F928A
:1004F000CDB7DEB78A836B8319828A81282F30E0DB
:100500003D832C834C815D814130510541F18C81CB
:100510009D818230910534F42C813D812115310576
:1005200061F052C04C815D814230510551F18C81A6
:100530009D8183309105B9F147C0E9E3F0E0808106
:10054000282F30E08B81882F90E0A90102C05595BB
:1005500047958A95E2F7CA018170898335C0E6E341
:10056000F0E08081282F30E08B81882F90E0A90176
:1005700002C0559547958A95E2F7CA018170898333
:1005800023C0E3E3F0E08081282F30E08B81882FC7
:1005900090E0A90102C0559547958A95E2F7CA01F6
:1005A0008170898311C0E0E3F0E08081282F30E082
:1005B0008B81882F90E0A90102C0559547958A95B7
:1005C000E2F7CA018170898389810F900F900F90A3
:1005D0000F900F90CF91DF910895DF93CF9300D0CC
:1005E00000D0CDB7DEB789836A838981282F30E0B8
:1005F0003C832B838B819C8181309105D1F02B81B1
:100600003C81223031052CF48B819C81009761F074
:100610001EC02B813C812230310581F08B819C8171
:100620008330910581F013C0EAE3F0E08A81808392
:100630000EC0E7E3F0E08A81808309C0E4E3F0E0E4
:100640008A81808304C0E1E3F0E08A8180830F9097
:100650000F900F900F90CF91DF910895DF93CF937C
:1006600000D000D0CDB7DEB789836A838981282F77
:1006700030E03C832B838B819C8181309105D1F0CC
:100680002B813C81223031052CF48B819C81009799
:1006900061F01EC02B813C812230310581F08B81BD
:1006A0009C818330910581F013C0EBE3F0E08A81F7
:1006B00080830EC0E8E3F0E08A81808309C0E5E32F
:1006C000F0E08A81808304C0E2E3F0E08A818083E5
:1006D0000F900F900F900F90CF91DF910895DF93BF
:1006E000CF93CDB7DEB70E943600FFCFF894FFCF8F
:00000001FF
